:100000000C9434000C943E000C943E000C943E0082
:100010000C943E000C943E000C943E000C943E0068
:100020000C943E000C943E000C943E000C943E0058
:100030000C943E000C943E000C943E000C943E0048
:100040000C943E000C943E000C943E000C943E0038
:100050000C943E000C943E000C943E000C943E0028
:100060000C943E000C943E0011241FBECFEFD8E04C
:10007000DEBFCDBF0E9440000C947B000C940000BA
:1000800017B887E880937A0080E680937C00E0E8E8
:10009000F0E08081826A8083E1E8F0E080818B611A
:1000A000808384EC99E090938700809386008FEFA3
:1000B00084B9EAE7F0E0C9E7D0E0A8E8B0E08081E1
:1000C00080648083808184FFFDCF80818061808314
:1000D000888190E09695879583589F4F11969C93C1
:1000E0008E932FEF8EE994E2215080409040E1F70B
:0A00F00000C00000E4CFF894FFCF39
:00000001FF
