:100000000C9434000C943E000C943E000C943E0082
:100010000C943E000C943E000C943E000C943E0068
:100020000C943E000C943E000C943E000C943E0058
:100030000C943E000C943E000C943E000C943E0048
:100040000C943E000C943E000C943E000C943E0038
:100050000C943E000C943E000C943E000C943E0028
:100060000C943E000C943E0011241FBECFEFD8E04C
:10007000DEBFCDBF0E9440000C948C000C940000A9
:1000800017B88FEF8AB917B887E880937A0080E6AF
:1000900080937C0010928000E1E8F0E080818D6028
:1000A00080838DE093E09093890080938800109284
:1000B00085001092840073E062E450EC41E8EAE7C6
:1000C000F0E0C9E7D0E0A8E8B0E0B19BFECF7BB993
:1000D000B19AB19BFECF6BB9B19AB19BFECF5BB920
:1000E000B19AB19BFECF4BB9B19A80818064808375
:1000F000808184FFFDCF888190E09C01220F331F17
:10010000820F931F880F991F880F991F835F9C4F41
:0C01100011969C938E93D9CFF894FFCFEA
:00000001FF
