S01300004441325F7461736B315F632E7372656355
S11300000C9434000C943E000C943E000C943E007E
S11300100C943E000C943E000C943E000C943E0064
S11300200C943E000C943E000C943E000C943E0054
S11300300C943E000C943E000C943E000C943E0044
S11300400C943E000C943E000C943E000C943E0034
S11300500C943E000C943E000C943E000C943E0024
S11300600C943E000C943E0011241FBECFEFD8E048
S1130070DEBFCDBF0E9440000C9451000C940000E0
S1130080229A2A982A9A83E294EF0197F1F700C002
S113009000002A9883E294EF0197F1F700C0000072
S10900A0F1CFF894FFCF3C
S9030000FC
