S01300004441325F7461736B335F632E7372656353
S11300000C9434000C943E000C943E000C943E007E
S11300100C943E000C943E000C943E000C943E0064
S11300200C943E000C943E000C943E000C943E0054
S11300300C943E000C943E000C943E000C943E0044
S11300400C943E000C943E000C943E000C943E0034
S11300500C943E000C943E000C943E000C943E0024
S11300600C943E000C943E0011241FBECFEFD8E048
S1130070DEBFCDBF0E9440000C9451000C940000E0
S1130080229A2A9814BC85E085BD8CE086BD24E0C4
S11300909CE0A89BFECF85B1822785B9A89A96BD1E
S10900A0F8CFF894FFCF35
S9030000FC
