:100000000C9434000C94AD000C9451000C945100ED
:100010000C9451000C9451000C9451000C9451001C
:100020000C9451000C9451000C9451000C9451000C
:100030000C9451000C9451000C9451000C945100FC
:100040000C9451000C9451000C9451000C945100EC
:100050000C9451000C9451000C9451000C945100DC
:100060000C9451000C94510011241FBECFEFD8E026
:10007000DEBFCDBF11E0A0E0B1E0E6ECF8E002C0E9
:1000800005900D92AE32B107D9F721E0AEE2B1E0B2
:1000900001C01D92A333B207E1F70E94BE000C9489
:1000A00061040C940000CF93DF930E942501EC01C2
:1000B00085E290E09983888322E02A839C838B8366
:1000C00021E02D839F838E8325E028879A87898767
:1000D00023E02B879D878C8784E08E87E9E6F0E01C
:1000E000808182608083E89ACE010E941502CE0151
:1000F000DF91CF91089584B1837D84B9249A8CB522
:100100001CBC8CB583608CBD8CB580648CBD08959F
:100110001092C5008CE08093C40088E18093C100F8
:1001200082E28093C00086E08093C2000895CF935E
:10013000DF93FC012081222369F0DC011196E0ECC1
:10014000F0E0C6ECD0E0908195FFFDCF28832D91A3
:100150002111F9CFDF91CF9108951F920F920FB621
:100160000F9211248F9381E080932E018CB38CBB6E
:100170008F910F900FBE0F901F901895CF93DF9324
:10018000CDB7DEB7AD970FB6F894DEBF0FBECDBFCB
:100190000E9488000E947B002FE789EA93E02150AB
:1001A00080409040E1F700C0000083E291E00E94AF
:1001B000970085E0E6E0F1E0DE01119601900D92F6
:1001C0008A95E1F778940E9453008C01AE014F5F4D
:1001D0005F4F60E070E00E947C0121E030E0AE0102
:1001E0004A5F5F4F60E0C8010E946E0180912E015E
:1001F0008823E1F310922E010EC0BE01655F7F4F90
:10020000C8010E941003CE010D960E9497008BE258
:1002100091E00E949700C8010E94E3018111EDCF97
:10022000AE014F5F5F4F60E070E0C8010E947C014B
:10023000DDCFFC01A62FB72F9C012B5F3F4F919183
:100240009D93E217F307D9F7089580E190E00E94AB
:10025000400320E1FC0111922A95E9F70895CF931C
:10026000DF93EC01DA01E881F981508181E090E0CF
:100270000A8002C0880F991F0A94E2F780958523AF
:1002800080836EBD0DB407FEFDCF8EB58F8721151F
:10029000310579F0FD012A0F3B1FDF0190819EBDE2
:1002A0000DB407FEFDCF9EB59C933196E217F30780
:1002B000A1F7E881F981208181E090E00A8002C005
:1002C000880F991F0A94E2F7822B80838F85DF9134
:1002D000CF91089560620E942F0108950E942F011E
:1002E000089520E030E040E050E06FEF0E942F01E1
:1002F00008950E9471010895DF92EF92FF920F938B
:100300001F93CF93DF9300D000D000D0CDB7DEB7DE
:100310007C01D62ECA01BE016F5F7F4F0E9419017A
:100320006AE06D0D25E030E0AE014F5F5F4FC70121
:100330000E946A0121E030E0AE014A5F5F4F62E057
:10034000C7010E946E0101E010E0C80102C0880FE1
:10035000991FDA94E2F79E81892B8E8321E030E0A9
:10036000AE014A5F5F4F62E0C7010E946A01D70198
:100370001396ED91FC911497808115960C9002C014
:10038000000F111F0A94E2F7082B008326960FB680
:10039000F894DEBF0FBECDBFDF91CF911F910F91BB
:1003A000FF90EF90DF900895FC0127852E7030E0DC
:1003B00035952795263031051CF4822F932F08950B
:1003C0008FEF9FEF0895CF93DF93EC01EB81FC81DA
:1003D000208181E090E00D8002C0880F991F0A946F
:1003E000E2F7809582238083CE010E947901CE01BD
:1003F0000E94D401892F8095881F8827881FDF914C
:10040000CF910895CF93DF931F92CDB7DEB720E74A
:10041000298321E030E0AE014F5F5F4F67E00E942B
:100420006A010F90DF91CF910895FF920F931F9370
:10043000CF93DF931F92CDB7DEB78C01DC01ED9136
:10044000FC911197429181E090E09C0112960C90F2
:10045000129702C0220F331F0A94E2F7242B208345
:100460001396ED91FC91149742919C0115960C9076
:10047000159702C0220F331F0A94E2F7242B208322
:10048000ED91FC91119740819C0112960C9012976E
:1004900002C0220F331F0A94E2F7242B2083139605
:1004A000ED91FC9114973081AC0115960C90159745
:1004B00002C0440F551F0A94E2F7242F20952323EE
:1004C00020832CB520612CBD2CB520642CBD169644
:1004D000ED91FC91179742919C0118960C901897FA
:1004E00002C0220F331F0A94E2F7242B20831996AF
:1004F000ED91FC911A9742919C011B960C901B97D1
:1005000002C0220F331F0A94E2F7242B20831C968B
:10051000ED91FC911D9722911E960C9002C0880FC0
:10052000991F0A94E2F78095822380838CB5877F98
:100530008CBD8CB58B7F8CBD8CB58E7F8CBD8CB506
:100540008D7F8CBD8DB581608DBD8CB58F7D8CBD53
:1005500020E030E040E050E062EEC8010E942F0150
:1005600020E030E040E050E061EEC8010E942F0141
:10057000C8010E9402028FE0898321E030E0AE01D1
:100580004F5F5F4F60E0C8010E946A010F2EFFE3DA
:10059000FF2EF02DF98221E030E0AE014F5F5F4F7A
:1005A00061E0C8010E946A01F98221E030E0AE01F9
:1005B0004F5F5F4F6CE1C8010E946A0184E089834C
:1005C00021E030E0AE014F5F5F4F6DE1C8010E9456
:1005D0006A01198221E030E0AE014F5F5F4F62E0B7
:1005E000C8010E946A010F90DF91CF911F910F9176
:1005F000FF900895CF93DF931F92CDB7DEB7FC0134
:1006000097859064998321E030E0AE014F5F5F4FA2
:1006100067E0CF010E946A010F90DF91CF910895AA
:100620000F931F93CF93DF938C01EB010E94D401B2
:1006300099838883C8010E94FA028881998199234D
:100640001CF41AA280E017C021E030E0AE014E5D3C
:100650005F4F60E6C8010E946E012AA1222351F07B
:1006600030E0AE014E5F5F4F61E6C8010E942F018E
:1006700081E001C081E0DF91CF911F910F9108953A
:100680000F931F93CF93DF938230910510F482E094
:1006900090E0E0913101F091320120E030E0A0E003
:1006A000B0E0309719F140815181028113814817E0
:1006B0005907C8F08417950769F4109731F012961E
:1006C0000C93129713961C9327C00093310110933B
:1006D000320122C02115310519F04217530718F4D1
:1006E0009A01BD01EF01DF01F801DBCF21153105D2
:1006F000F9F0281B390B2430310580F48A819B8165
:100700006115710521F0FB019383828304C09093EE
:10071000320180933101FE01329644C0FE01E20FA6
:10072000F31F8193919322503109398328833AC072
:1007300020912F0130913001232B41F420910201AF
:10074000309103013093300120932F01209100015B
:10075000309101012115310541F42DB73EB740918B
:10076000040150910501241B350BE0912F01F091FC
:100770003001E217F307A0F42E1B3F0B28173907AF
:1007800078F0AC014E5F5F4F2417350748F04E0FED
:100790005F1F5093300140932F018193919302C0CA
:1007A000E0E0F0E0CF01DF91CF911F910F9108952C
:1007B000CF93DF93009709F481C0FC013297138235
:1007C0001282A0913101B0913201109781F4208101
:1007D0003181820F931F20912F0130913001281712
:1007E000390751F5F0933001E0932F0167C0ED0117
:1007F00020E030E0CE17DF0740F44A815B819E01A4
:1008000041155105F1F0EA01F5CFD383C283408150
:100810005181840F951FC817D90759F48881998190
:10082000840F951F0296918380838A819B81938395
:1008300082832115310529F4F0933201E0933101CF
:100840003DC0E901FB83EA8349915991C40FD51F4B
:10085000EC17FD0761F480819181840F951F02964A
:10086000E90199838883828193819B838A83E0E075
:10087000F0E012968D919C911397009719F0FD016D
:10088000DC01F7CF8D919C9111979D012E5F3F4F19
:10089000820F931F20912F013091300128173907C3
:1008A00069F4309729F4109232011092310102C09C
:1008B00013821282B0933001A0932F01DF91CF9168
:0608C0000895F894FFCF3B
:1008C600000033012000010101010154656D7065CE
:1008D60072617475726520726561642069733A206D
:0E08E60025730053746172746564210D0A005D
:00000001FF
