:100000000C9434000C9449000C9449000C94490061
:100010000C9449000C9449000C9449000C9449003C
:100020000C9449000C9449000C9449000C9449002C
:100030000C9449000C9449000C9449000C9449001C
:100040000C9449000C9449000C9449000C9449000C
:100050000C9449000C9449000C9449000C944900FC
:100060000C9449000C94490011241FBECFEFD8E036
:10007000DEBFCDBF11E0A0E0B1E0E8E4F3E002C0F4
:1000800005900D92AA3DB107D9F70E9416010C9474
:10009000A2010C9400009093C5008093C40088E1F5
:1000A0008093C10086E08093C2000895CF93DF93D0
:1000B000FC0120812223B1F0DC011196E0ECF0E09C
:1000C000C6ECD0E0908195FFFDCF28832FE788E331
:1000D00091E0215080409040E1F700C000002D9158
:1000E0002111F0CFDF91CF910895E0ECF0E0908105
:1000F00095FFFDCF8093C6000895E0ECF0E080818D
:100100008823ECF78091C60008951F93CF93DF9367
:100110000E947D00C82F0E947500D0E0E0970E94E9
:100120007D00182F0E947500CE01880F991FCC0FFB
:10013000DD1FCC0FDD1FCC0FDD1FC80FD91F812F96
:1001400090E0C0978C0F9D1FDF91CF911F91089574
:10015000181619069CF520E030E079E06CE056E0D6
:1001600043E075B9AFEBE4EDF1E0A150E040F040C1
:10017000E1F700C0000065B9AFEBE4EDF1E0A1509C
:10018000E040F040E1F700C0000055B9AFEBE4ED0E
:10019000F1E0A150E040F040E1F700C0000045B9B7
:1001A000AFEBE4EDF1E0A150E040F040E1F700C03A
:1001B00000002F5F3F4F8217930799F60895181696
:1001C00019069CF520E030E073E066E05CE049E071
:1001D00075B9AFEBE4EDF1E0A150E040F040E1F79C
:1001E00000C0000065B9AFEBE4EDF1E0A150E040E4
:1001F000F040E1F700C0000055B9AFEBE4EDF1E0ED
:10020000A150E040F040E1F700C0000045B9AFEB7D
:10021000E4EDF1E0A150E040F040E1F700C0000063
:100220002F5F3F4F8217930799F60895CF92DF9281
:10023000EF92FF920F931F93CF9383E390E00E947E
:100240004B0080E091E00E9456008FE491E00E9414
:10025000560084E991E00E9456008BEA91E00E94EA
:10026000560085EC91E00E9456008FEF84B960E063
:1002700070E080E090E00E9485006C010E947D00AB
:100280000E94750060E070E080E090E00E948500D0
:100290007C010E947D000E94750060E070E080E0BB
:1002A00090E00E9485008C01849710F003E210E03A
:1002B000C0E5CC9DC001CD9D900D11240E94A800E9
:1002C0002FEF31E18AE7215030408040E1F700C054
:1002D0000000C7018C199D099C01C29FC001C39FEA
:1002E000900D11240E94A8003FEF81E19AE7315060
:1002F00080409040E1F700C00000C8018E199F09BE
:100300009C01C29FC001C39F900D11240E94A800B0
:100310003FEF81E19AE7315080409040E1F700C023
:100320000000C09FC001C19F900D11240E94DF00FA
:1003300080E090E0CF911F910F91FF90EF90DF90C0
:08034000CF900895F894FFCF5F
:10034800506C6561736520656E746572203320702A
:100358006F736974696F6E7320696E2063656E745C
:10036800696D65746572732077697468206F6E654E
:10037800207370616365206265747765656E2065BA
:1003880061636820706F736974696F6E0D0A004647
:100398006F722073696E676C652064696769742081
:1003A800706F736974696F6E7320706C65617365C3
:1003B800207075742061207A65726F20696E2074D0
:1003C80068652074656E7320706C6163652E2E2ECF
:1003D800200D0A00492E452E20666F7220392063B1
:1003E8006D207075742030390D0A004578616D7084
:1003F8006C6520696E7075743A2030312031302078
:1004080032350D0A004D61782076616C756520697A
:0A04180073203335636D0D0A0000F8
:00000001FF
