S01300004441325F7461736B345F632E7372656352
S11300000C9434000C943E000C943E000C943E007E
S11300100C943E000C943E000C943E000C943E0064
S11300200C943E000C943E000C943E000C943E0054
S11300300C943E000C9452000C943E000C943E0030
S11300400C943E000C943E000C943E000C943E0034
S11300500C943E000C943E000C943E000C943E0024
S11300600C943E000C943E0011241FBECFEFD8E048
S1130070DEBFCDBF0E9440000C946B000C940000C6
S1130080229A15B81092800083E0809381008EEB51
S113009090EF909385008093840081E080936F00BB
S11300A07894FFCF1F920F920FB60F9211248F9363
S11300B09F93B09A95B184E0892785B98EEB90EF30
S11300C090938500809384009F918F910F900FBE31
S10D00D00F901F901895F894FFCFCD
S9030000FC
