S012000044415F4D69647465726D2E737265635C
S11300000C9434000C9451000C9451000C94510045
S11300100C9451000C9451000C9451000C94510018
S11300200C9451000C9451000C9451000C94510008
S11300300C9451000C9451000C9451000C945100F8
S11300400C9451000C9451000C9451000C945100E8
S11300500C9451000C9451000C9451000C945100D8
S11300600C9451000C94510011241FBECFEFD8E022
S1130070DEBFCDBF11E0A0E0B1E0EEE4F9E002C0E4
S113008005900D92AA3CB107D9F721E0AAECB1E0A2
S113009001C01D92AA3EB207E1F70E94BC000C9475
S11300A0A5040C940000ECE7F0E0108280E6808365
S11300B086EE80937A0008951092E9011092E80187
S11300C044E0EAE7F0E0A9E7B0E08081806480835F
S11300D0808184FFFDCF9C912091E8013091E9015A
S11300E0892F90E0880F991F820F931F9093E90145
S11300F08093E8012FE788E391E02150804090400D
S1130100E1F700C00000415001F78091E8019091AF
S1130110E90196958795969587959093E901809343
S1130120E80108959093C5008093C40088E180930A
S1130130C10086E08093C2000895CF93DF93FC0151
S113014020812223B1F0DC011196E0ECF0E0C6EC52
S1130150D0E0908195FFFDCF28832FE38DE093E0DD
S1130160215080409040E1F700C000002D91211102
S1130170F0CFDF91CF9108950E94530083E090E087
S11301800E9492002FE33DE083E021503040804004
S1130190E1F700C00000CAECD1E085E0E0E0F1E066
S11301A0DE0101900D928A95E1F7CE010E949D0037
S11301B09FEF23ED30E3915020403040E1F700C041
S11301C000008EE0E5E0F1E0DE0101900D928A95F9
S11301D0E1F7CE010E949D008FEF93ED20E3815063
S11301E090402040E1F700C000008EE0E3E1F1E040
S11301F0DE0101900D928A95E1F7CE010E949D00E7
S11302003FEF83ED90E3315080409040E1F700C030
S113021000008FE0E1E2F1E0DE0101900D928A95A9
S1130220E1F7CE010E949D002FEF33ED80E32150D2
S113023030408040E1F700C0000080E391E09F93EC
S11302408F938AE391E09F938F9382E491E09F934D
S11302508F931F921EE11F93DF93CF930E94AD01F2
S1130260CE010E949D003FEF83ED90E3315080402A
S11302709040E1F700C0000087E591E09F938F93E1
S11302808AE691E09F938F931F921F93DF93CF93FE
S11302900E94AD01CE010E949D008FEF93ED20E3FB
S11302A0815090402040E1F700C000008DB79EB718
S11302B042960FB6F8949EBF0FBE8DBF0F2EF6E880
S11302C0AF2EF1E0BF2EF02D0F2EF7E9CF2EF1E087
S11302D0DF2EF02D0F2EFEE1FF2EF02D09EB11E0A5
S11302E00E945C00BF92AF92DF92CF921F92FF9266
S11302F0DF93CF930E94AD01CE010E949D003FE7A2
S113030089EA93E0315080409040E1F700C000005A
S11303108091E8019091E9019F938F931F930F932C
S11303201F92FF92DF93CF930E94AD01CE010E94F2
S11303309D008FEF9CE221E331E08150904020400A
S11303403040D9F700C000008DB79EB740960FB675
S1130350F8949EBF0FBE8DBFC3CFAEE0B0E0E3EB19
S1130360F1E00C947C040D891E898F89988D26E018
S11303702C831A83098397FF02C080E090E80197D9
S11303809E838D83AE01455E5F4F698D7A8DCE016C
S113039001960E94DD014D815E8157FD0AC02F81C7
S11303A03885421753070CF49A01F801E20FF31F42
S11303B010822E96E4E00C949804ABE0B0E0E3EEF7
S11303C0F1E00C946E046C017B018A01FC0117823C
S11303D01682838181FFCCC1CE0101963C01F601D6
S11303E09381F70193FD859193FF81917F01882388
S11303F009F4BAC1853239F493FD859193FF819153
S11304007F01853229F4B60190E00E94D403E7CF3E
S1130410912C212C312CFFE1F315D8F08B3279F09B
S113042038F4803279F08332A1F4232D20611DC089
S11304308D3261F0803369F4232D216016C0832D41
S11304408260382EE32DE4603E2E2AC0F32DF8603E
S11304501DC037FC2DC020ED280F2A3040F08E320D
S1130460B9F436FC81C1232D2064322E19C036FE26
S113047006C08AE0989E200D1124922E11C0EAE055
S11304802E9E200D1124222EF32DF0623F2E08C043
S11304908C3621F4832D8068382E02C0883641F4CE
S11304A0F70193FD859193FF81917F018111B3CF72
S11304B0982F9F7D9554933028F40C5F1F4F9FE332
S11304C099830DC0833631F0833771F0833509F099
S11304D059C021C0F801808189830E5F1F4F882491
S11304E08394912C530113C02801F2E04F0E511C48
S11304F0F801A080B18036FE03C0692D70E002C00F
S11305006FEF7FEFC5010E94C9034C018201F32DF7
S1130510FF773F2E16C0280122E0420E511CF8013D
S1130520A080B18036FE03C0692D70E002C06FEF79
S11305307FEFC5010E94BE034C01F32DF0683F2EEE
S1130540820133FC1BC0822D90E088169906B0F41A
S1130550B60180E290E00E94D4032A94F4CFF5011E
S113056037FC859137FE81915F01B60190E00E94CE
S1130570D40321102A9421E0821A91088114910451
S113058071F7E8C0843611F0893641F5F80137FE79
S113059007C060817181828193810C5F1F4F08C005
S11305A060817181072E000C880B990B0E5F1F4F21
S11305B0F32DFF763F2E97FF09C090958095709597
S11305C061957F4F8F4F9F4FF0683F2E2AE030E0B8
S11305D0A3010E941004882E861845C0853731F483
S11305E0232D2F7EB22E2AE030E025C0932D997F53
S11305F0B92E8F36C1F018F4883579F0B5C080373C
S113060019F0883721F0B0C0E92FE061BE2EB4FEA6
S11306100DC0FB2DF460BF2E09C034FE0AC0292F83
S11306202660B22E06C028E030E005C020E130E0AC
S113063002C020E132E0F801B7FE07C06081718199
S1130640828193810C5F1F4F06C06081718180E0BD
S113065090E00E5F1F4FA3010E941004882E86189D
S1130660FB2DFF773F2E36FE0DC0232D2E7FA22EAD
S1130670891458F434FE0BC032FC09C0832D8E7EDD
S1130680A82E05C0B82CA32C03C0B82C01C0B92CCB
S1130690A4FE0FC0FE01E80DF11D8081803321F41A
S11306A09A2D997EA92E09C0A2FE06C0B394B394D4
S11306B004C08A2D867809F0B394A3FC11C0A0FE6F
S11306C006C0B21488F4280C922C9B180EC0B214E5
S11306D060F4B60180E290E00E94D403B394F7CFB3
S11306E0B21418F42B1802C0982C212CA4FE10C0AC
S11306F0B60180E390E00E94D403A2FE17C0A1FCDF
S113070003C088E790E002C088E590E0B6010CC021
S11307108A2D867859F0A1FE02C08BE201C080E2E6
S1130720A7FC8DE2B60190E00E94D403891438F44A
S1130730B60180E390E00E94D4039A94F7CF8A94A0
S1130740F301E80DF11D8081B60190E00E94D4030D
S11307508110F5CF222009F442CEB60180E290E068
S11307600E94D4032A94F6CFF6018681978102C0B1
S11307708FEF9FEF2B96E2E10C948A04FC01059025
S1130780615070400110D8F7809590958E0F9F1F8F
S11307900895FC016150704001900110D8F78095D4
S11307A090958E0F9F1F08950F931F93CF93DF9300
S11307B0FB01238121FD03C08FEF9FEF2CC022FF9B
S11307C016C046815781248135814217530744F46A
S11307D0A081B1819D012F5F3F4F318320838C9392
S11307E0268137812F5F3F4F3783268314C08B01C7
S11307F0EC01FB010084F185E02D0995892BE1F6DC
S1130800D80116968D919C911797019617969C93F3
S11308108E931697CE01DF91CF911F910F9108957A
S1130820FA01AA27283051F1203181F1E8946F931D
S11308306E7F6E5F7F4F8F4F9F4FAF4FB1E03ED0C3
S1130840B4E03CD0670F781F891F9A1FA11D680F61
S1130850791F8A1F911DA11D6A0F711D811D911D94
S1130860A11D20D009F468943F912AE0269F112409
S11308703019305D3193DEF6CF010895462F47706D
S1130880405D4193B3E00FD0C9F7F6CF462F4F70C8
S1130890405D4A3318F0495D31FD4052419302D026
S11308A0A9F7EACFB4E0A6959795879577956795CC
S11308B0BA95C9F700976105710508959B01AC01CC
S11308C00A2E06945795479537952795BA95C9F7F3
S11308D0620F731F841F951FA01D08952F923F92CE
S11308E04F925F926F927F928F929F92AF92BF923C
S11308F0CF92DF92EF92FF920F931F93CF93DF93E8
S1130900CDB7DEB7CA1BDB0B0FB6F894DEBF0FBE44
S1130910CDBF09942A88398848885F846E847D8491
S11309208C849B84AA84B984C884DF80EE80FD8093
S11309300C811B81AA81B981CE0FD11D0FB6F89409
S1110940DEBF0FBECDBFED010895F894FFCFCA
S113094E41540D0A0041542B43574D4F44453D33FA
S113095E0D0A0041542B4349504D55583D300D0A54
S113096E0041542B4349504D4F44453D300D0A0030
S113097E393534344748353139004275636B6579FE
S113098E650041542B43574A41503D222573222C76
S113099E222573220D0A006170692E7468696E67D0
S11309AE737065616B2E636F6D0041542B43504918
S11309BE53544152543D22544350222C2225732227
S11309CE2C38300D0A00504735594B484F4D3630B0
S11309DE45385851524900474554202F757064616B
S11309EE74653F6170695F6B65793D257326666931
S11309FE656C64313D310D0A0041542B4349534516
S10D0A0E4E443D2533640D0A000038
S9030000FC
