S012000044415F4D69647465726D2E737265635C
S11300000C9434000C9451000C9451000C94510045
S11300100C9451000C9451000C9451000C94510018
S11300200C9451000C9451000C9451000C94510008
S11300300C9451000C9451000C9451000C945100F8
S11300400C9451000C9451000C9451000C945100E8
S11300500C9451000C9451000C9451000C945100D8
S11300600C9451000C94510011241FBECFEFD8E022
S1130070DEBFCDBF11E0A0E0B1E0EEE8F9E002C0E0
S113008005900D92AC3AB107D9F721E0ACEAB1E0A2
S113009001C01D92A23CB207E1F70E94DA000C9461
S11300A0C5040C940000ECE7F0E0108280E6808345
S11300B086EE80937A0008951092C1011092C001D7
S11300C044E0EAE7F0E0A9E7B0E08081806480835F
S11300D0808184FFFDCF9C912091C0013091C101AA
S11300E0892F90E0880F991F820F931F9093C1016D
S11300F08093C0012FE788E391E021508040904035
S1130100E1F700C00000415001F78091C0019091D7
S1130110C10196958795969587959093C101809393
S1130120C00108959093C5008093C40088E1809332
S1130130C10086E08093C2000895CF93DF93FC0151
S113014020812223B1F0DC011196E0ECF0E0C6EC52
S1130150D0E0908195FFFDCF28832FE38DE093E0DD
S1130160215080409040E1F700C000002D91211102
S1130170F0CFDF91CF910895E0ECF0E0908195FF0E
S1130180FDCF8093C60008950F931F93CF93FC0176
S11301908081882359F08F01C0E00E94BC00CF5FAA
S11301A0F801EC0FF11D80818111F7CFCF911F91E0
S11301B00F910895CF93DF93CDB7DEB7C65AD10917
S11301C00FB6F894DEBF0FBECDBF85E0E6E0F1E0E8
S11301D0DE01119601900D928A95E1F78EE0EBE035
S11301E0F1E0DE01169601900D928A95E1F78EE119
S11301F0E9E1F1E0DE01549601900D928A95E1F770
S11302008EE0E7E3F1E0DE01D29601900D928A954B
S1130210E1F78EE2E5E4F1E0DE01A05CBF4F01907E
S11302200D928A95E1F780E1E3E7F1E0DE01A2595E
S1130230BF4F01900D928A95E1F789E2E3E8F1E07E
S1130240DE01A258BF4F01900D928A95E1F70E94FA
S1130250530083E090E00E9492002FE33DE083E0AE
S1130260215030408040E1F700C000009FEF21EEB4
S113027034E0915020403040E1F700C00000CE014E
S113028001960E94C4008FEF93ED20E381509040CB
S11302902040E1F700C00000CE0106960E94C40091
S11302A03FEF83ED90E3315080409040E1F700C090
S11302B00000CE01C2960E94C4002FEF33ED80E30C
S11302C0215030408040E1F700C00000CE01449648
S11302D00E94C4009FEF23ED30E391502040304052
S11302E0E1F700C00000CE01805C9F4F0E94C40073
S11302F08FEF93ED20E3815090402040E1F700C060
S113030000000F2EF0E0EF2EF1E0FF2EF02D0F2E67
S1130310F4E1DF2EF02D0CEA11E00E945C008091E4
S1130320C0019091C1019F938F93FF92EF921F920E
S1130330DF921F930F930E94CD01CE0182599F4FEC
S11303400E94C4003FEF83ED90E331508040904021
S1130350E1F700C00000CE0182589F4F0E94C40004
S11303602FEF33ED80E3215030408040E1F700C0AF
S11303700000C8010E949D009FEF2CE231E381E060
S11303809150204030408040D9F700C000000FB6A3
S1130390F894DEBF0FBECDBFC0CFAEE0B0E0E3ED5A
S11303A0F1E00C949C040D891E898F89988D26E0B8
S11303B02C831A83098397FF02C080E090E8019799
S11303C09E838D83AE01455E5F4F698D7A8DCE012C
S11303D001960E94FD014D815E8157FD0AC02F8167
S11303E03885421753070CF49A01F801E20FF31F02
S11303F010822E96E4E00C94B804ABE0B0E0E3E0A5
S1130400F2E00C948E046C017B018A01FC011782DA
S11304101682838181FFCCC1CE0101963C01F60195
S11304209381F70193FD859193FF81917F01882347
S113043009F4BAC1853239F493FD859193FF819112
S11304407F01853229F4B60190E00E94F403E7CFDE
S1130450912C212C312CFFE1F315D8F08B3279F05B
S113046038F4803279F08332A1F4232D20611DC049
S11304708D3261F0803369F4232D216016C0832D01
S11304808260382EE32DE4603E2E2AC0F32DF860FE
S11304901DC037FC2DC020ED280F2A3040F08E32CD
S11304A0B9F436FC81C1232D2064322E19C036FEE6
S11304B006C08AE0989E200D1124922E11C0EAE015
S11304C02E9E200D1124222EF32DF0623F2E08C003
S11304D08C3621F4832D8068382E02C0883641F48E
S11304E0F70193FD859193FF81917F018111B3CF32
S11304F0982F9F7D9554933028F40C5F1F4F9FE3F2
S113050099830DC0833631F0833771F0833509F058
S113051059C021C0F801808189830E5F1F4F882450
S11305208394912C530113C02801F2E04F0E511C07
S1130530F801A080B18036FE03C0692D70E002C0CE
S11305406FEF7FEFC5010E94E9034C018201F32D97
S1130550FF773F2E16C0280122E0420E511CF801FD
S1130560A080B18036FE03C0692D70E002C06FEF39
S11305707FEFC5010E94DE034C01F32DF0683F2E8E
S1130580820133FC1BC0822D90E088169906B0F4DA
S1130590B60180E290E00E94F4032A94F4CFF501BE
S11305A037FC859137FE81915F01B60190E00E948E
S11305B0F40321102A9421E0821A910881149104F1
S11305C071F7E8C0843611F0893641F5F80137FE39
S11305D007C060817181828193810C5F1F4F08C0C5
S11305E060817181072E000C880B990B0E5F1F4FE1
S11305F0F32DFF763F2E97FF09C090958095709557
S113060061957F4F8F4F9F4FF0683F2E2AE030E077
S1130610A3010E943004882E861845C0853731F422
S1130620232D2F7EB22E2AE030E025C0932D997F12
S1130630B92E8F36C1F018F4883579F0B5C08037FB
S113064019F0883721F0B0C0E92FE061BE2EB4FE66
S11306500DC0FB2DF460BF2E09C034FE0AC0292F43
S11306602660B22E06C028E030E005C020E130E06C
S113067002C020E132E0F801B7FE07C06081718159
S1130680828193810C5F1F4F06C06081718180E07D
S113069090E00E5F1F4FA3010E943004882E86183D
S11306A0FB2DFF773F2E36FE0DC0232D2E7FA22E6D
S11306B0891458F434FE0BC032FC09C0832D8E7E9D
S11306C0A82E05C0B82CA32C03C0B82C01C0B92C8B
S11306D0A4FE0FC0FE01E80DF11D8081803321F4DA
S11306E09A2D997EA92E09C0A2FE06C0B394B39494
S11306F004C08A2D867809F0B394A3FC11C0A0FE2F
S113070006C0B21488F4280C922C9B180EC0B214A4
S113071060F4B60180E290E00E94F403B394F7CF52
S1130720B21418F42B1802C0982C212CA4FE10C06B
S1130730B60180E390E00E94F403A2FE17C0A1FC7E
S113074003C088E790E002C088E590E0B6010CC0E1
S11307508A2D867859F0A1FE02C08BE201C080E2A6
S1130760A7FC8DE2B60190E00E94F403891438F4EA
S1130770B60180E390E00E94F4039A94F7CF8A9440
S1130780F301E80DF11D8081B60190E00E94F403AD
S11307908110F5CF222009F442CEB60180E290E028
S11307A00E94F4032A94F6CFF6018681978102C051
S11307B08FEF9FEF2B96E2E10C94AA04FC010590C5
S11307C0615070400110D8F7809590958E0F9F1F4F
S11307D00895FC016150704001900110D8F7809594
S11307E090958E0F9F1F08950F931F93CF93DF93C0
S11307F0FB01238121FD03C08FEF9FEF2CC022FF5B
S113080016C046815781248135814217530744F429
S1130810A081B1819D012F5F3F4F318320838C9351
S1130820268137812F5F3F4F3783268314C08B0186
S1130830EC01FB010084F185E02D0995892BE1F69B
S1130840D80116968D919C911797019617969C93B3
S11308508E931697CE01DF91CF911F910F9108953A
S1130860FA01AA27283051F1203181F1E8946F93DD
S11308706E7F6E5F7F4F8F4F9F4FAF4FB1E03ED083
S1130880B4E03CD0670F781F891F9A1FA11D680F21
S1130890791F8A1F911DA11D6A0F711D811D911D54
S11308A0A11D20D009F468943F912AE0269F1124C9
S11308B03019305D3193DEF6CF010895462F47702D
S11308C0405D4193B3E00FD0C9F7F6CF462F4F7088
S11308D0405D4A3318F0495D31FD4052419302D0E6
S11308E0A9F7EACFB4E0A69597958795779567958C
S11308F0BA95C9F700976105710508959B01AC018C
S11309000A2E06945795479537952795BA95C9F7B2
S1130910620F731F841F951FA01D08952F923F928D
S11309204F925F926F927F928F929F92AF92BF92FB
S1130930CF92DF92EF92FF920F931F93CF93DF93A7
S1130940CDB7DEB7CA1BDB0B0FB6F894DEBF0FBE04
S1130950CDBF09942A88398848885F846E847D8451
S11309608C849B84AA84B984C884DF80EE80FD8053
S11309700C811B81AA81B981CE0FD11D0FB6F894C9
S1110980DEBF0FBECDBFED010895F894FFCF8A
S113098E2533640D0A0041540D0A0041542B43577C
S113099E4D4F44453D330D0A0041542B43574A41B4
S11309AE503D202253534944222C22504153535735
S11309BE4F5244220D0A0041542B4349504D555871
S11309CE3D300D0A0041542B434950535441525467
S11309DE3D302C22544350222C226170692E7468AF
S11309EE696E67737065616B2E636F6D222C383080
S11309FE0D0A0041542B43495053454E443D343562
S1130A0E0D0A00474554202F7570646174653F6B61
S1130A1E65793D504735594B484F4D36304538581A
S10F0A2E515249266669656C64313D0034
S9030000FC
