S01100004441345F5461736B312E7372656337
S11300000C9434000C9463000C943E000C943E0059
S11300100C943E000C943E000C943E000C943E0064
S11300200C943E000C943E000C943E000C943E0054
S11300300C943E000C943E000C943E000C943E0044
S11300400C943E000C943E000C943E000C943E0034
S11300500C943E000C943E000C943E000C943E0024
S11300600C943E000C943E0011241FBECFEFD8E048
S1130070DEBFCDBF0E9440000C948A000C940000A7
S113008087E880937A0080E680937C008FEF84B9C0
S11300905A9A10928900109288008DE08093810012
S11300A083E880938000E89AE9E6F0E0808182604A
S11300B080837894EAE7F0E08081806480838081A3
S11300C084FFFDCFF9CF1F920F920FB60F92112428
S11300D08F939F93E09A289911C0289A8091790070
S11300E08D3D38F08DEC93E09093890080938800E7
S11300F00AC0109289001092880005C028981092B6
S11301008900109288009F918F910F900FBE0F90DD
S10B01101F901895F894FFCF2D
S9030000FC
